:100000000C9441010C9472010C9472010C947201D5
:100010000C9472010C9472010C9472010C94720194
:100020000C9472010C9472010C9472010C94720184
:100030000C9472010C9472010C9472010C94720174
:100040000C9472010C9472010C9472010C94720164
:100050000C9472010C9472010C9472010C946F0751
:100060000C9472010C9439070C940F070C947201D4
:100070000C9472010C9472010C9472010C94720134
:100080000C9472010C9472010C9472010C94720124
:100090000C9472010C9472010C9472010C94B907C7
:1000A0000C9472010C9472010C9472010C94720104
:1000B0000C9472010C9472010C9472010C947201F4
:1000C0000C9472010C9472010C9472010C947201E4
:1000D0000C9472010C9472010C9472010C947201D4
:1000E0000C9472010C945F030C9467030C947403DA
:1000F0000C94EB040C9482030C94FC030C94990371
:100100000C94EC040C949D020C943C040C94590344
:100110000C9490030C9443020C947E030C9486037D
:100120000C9463030C9478030C9457020C949E0374
:100130000C9494030C9434020C94D9080C9465022A
:100140000C948C030C946B030C946E030C94940627
:100150000C94EA020C94CB030C949A030C940702BF
:1001600000002100240027002A002D003000330069
:1001700001010000040107010A010000220025001E
:1001800028002B002E003100340002010000050180
:1001900008010B01000020002300260029002C008C
:1001A0002F003200000100000301060109010505CE
:1001B0000505070508080808020202020A0A0808DD
:1001C000040404040101010101010101030303030B
:1001D00003030303040707070C0C0C0C0C0C0C0C9A
:1001E0000202020206060606060606060B0B0B0BAB
:1001F0000B0B0B0B010210202008081020401020D0
:1002000040800201020108040201010204081020DA
:1002100040808040201008040201800402018040D8
:100220002010080402010804020101020408102041
:100230004080010204081020408000000A0B0209DF
:100240000C0D0E0807030401000000000000000070
:10025000000000000000000000000000000000009E
:10026000000000000000121110000000000000005B
:10027000000000000000000000000000000000007E
:10028000D90811241FBECFEFD1E2DEBFCDBF00E001
:100290000CBF12E0A0E0B2E0EEEAFEE100E00BBF2E
:1002A00002C007900D92A837B107D9F724E0A8E75C
:1002B000B2E001C01D92A032B207E1F711E0C1E443
:1002C000D1E000E006C021970109802FFE010E94C5
:1002D000440FC034D10780E00807A9F70E949309B2
:1002E0000C94550F0C94000096E0899FD0011124C6
:1002F000A756BC4F90967C936E935F9791E0919632
:100300009C939197E0910604F09107049091050465
:10031000992339F0309751F0811108C08091B503CD
:100320001994309719F05C968C91FACF0895CF927A
:10033000DF92EF92FF920F931F9396E0899FF00157
:100340001124E756FC4F11A2278D30A12130310531
:1003500051F178F02230310509F451C023303105D4
:1003600009F452C01F910F91FF90EF90DF90CF9052
:1003700008956623B9F361E070E00E9474012FB71D
:10038000F8948091F8029091F902A091FA02B0914C
:10039000FB022FBF8093F1039093F203A093F3032A
:1003A000B093F403DFCF9FB7F894C090F802D090D9
:1003B000F902E090FA02F090FB029FBF0091F10376
:1003C0001091F2032091F3033091F403C01AD10A83
:1003D000E20AF30A009103041091040430E020E0E3
:1003E0000C151D052E053F0550F462E070E01F91CD
:1003F0000F91FF90EF90DF90CF900C9474016111FA
:10040000B1CF63E070E0F3CF70E060E0F0CFAF9287
:10041000BF92CF92DF92EF92FF920F931F93CF93F1
:10042000DF936C017B018B01040F151FEB015E0153
:10043000AE18BF08C017D10759F06991D601ED91E8
:10044000FC910190F081E02DC6011995892B79F777
:10045000C501DF91CF911F910F91FF90EF90DF9039
:10046000CF90BF90AF900895FC01538D448D252F00
:1004700030E0842F90E0821B930B541710F0CF963E
:10048000089501970895FC01918D828D981761F070
:10049000A28DAE0FBF2FB11D5D968C91928D9F5F87
:1004A0009F73928F90E008958FEF9FEF0895FC0166
:1004B000918D828D981731F0828DE80FF11D858D19
:1004C00090E008958FEF9FEF0895FC01918D228DAC
:1004D000892F90E0805C9F4F821B91098F73992731
:1004E00008958CEF92E00E94650221E0892B09F4C7
:1004F00020E0822F0895FC01A48DA80FB92FB11D13
:10050000A35ABF4F2C91848D90E001968F73992749
:10051000848FA689B7892C93A089B1898C91837027
:1005200080648C93938D848D981306C00288F38920
:10053000E02D80818F7D80830895EF92FF920F934D
:100540001F93CF93DF93EC0181E0888F9B8D8C8D7F
:1005500098131AC0E889F989808185FF15C09FB773
:10056000F894EE89FF896083E889F9898081837036
:10057000806480839FBF81E090E0DF91CF911F91E5
:100580000F91FF90EF900895F62E0B8D10E00F5F06
:100590001F4F0F731127E02E8C8D8E110CC00FB6DC
:1005A00007FCFACFE889F989808185FFF5CFCE0174
:1005B0000E947B02F1CFEB8DEC0FFD2FF11DE35A72
:1005C000FF4FF0829FB7F8940B8FEA89FB898081F7
:1005D0008062CFCFCF93DF93EC01888D8823B9F071
:1005E000AA89BB89E889F9898C9185FD03C080813E
:1005F00086FD0DC00FB607FCF7CF8C9185FFF2CFBB
:10060000808185FFEDCFCE010E947B02E9CFDF9193
:10061000CF91089580E090E0892B29F00E9471022B
:1006200081110E94000080E090E0892B49F080E079
:1006300090E0892B29F00E94000081110E940000A7
:1006400080E090E0892B49F080E090E0892B29F050
:100650000E94000081110E94000080E090E0892B40
:1006600049F080E090E0892B29F00E940000811180
:100670000C94000008958150823108F05AC0E82F90
:10068000F0E08827E95BFC4F8F4F0C94440F670321
:100690006B0359035F03630399036E0374037803C9
:1006A0007E03820386038C039003990394039A03C9
:1006B0009E03809180008F778093800008958091C1
:1006C00080008F7DF9CF80918000877FF5CF84B542
:1006D0008F7784BD089584B58F7DFBCF8091B00066
:1006E0008F778093B00008958091B0008F7DF9CF0F
:1006F000809190008F778093900008958091900072
:100700008F7DF9CF80919000877FF5CF8091A000F9
:100710008F778093A00008958091A0008F7DF9CFFE
:100720008091A000877FF5CF809120018F77809303
:1007300020010895809120018F7DF9CF80912001C3
:10074000877FF5CFCF93DF93282F30E0F901E65C68
:10075000FD4F8491F901EC50FE4FD491F901E2551F
:10076000FE4FC491CC23A1F081110E943B03EC2FDA
:10077000F0E0EE0FFF1FEC56FE4FA591B491EC9107
:10078000ED2381E090E009F480E0DF91CF910895BE
:1007900080E090E0FACF862F0C94A2031F93CF93B2
:1007A000DF93282F30E0F901E65CFD4F8491F901D9
:1007B000EC50FE4FD491F901E255FE4FC491CC2389
:1007C000A9F0162F81110E943B03EC2FF0E0EE0FF1
:1007D000FF1FE658FE4FA591B4918FB7F894EC91A6
:1007E000111108C0D095DE23DC938FBFDF91CF912C
:1007F0001F910895DE2BF8CF862F642F0C94CE0323
:10080000CF93DF9390E0FC01EC50FE4F2491825592
:100810009E4FFC0184918823C9F090E0880F991FB6
:10082000FC01E05AFE4FA591B491FC01E658FE4F41
:10083000C591D49161110DC09FB7F8948C9120950A
:1008400082238C938881282328839FBFDF91CF91B7
:100850000895623051F49FB7F8943C91822F8095AF
:1008600083238C93E8812E2BEFCF8FB7F894EC91F4
:100870002E2B2C938FBFEACF862F642F0C9400046D
:100880003FB7F8948091EA029091EB02A091EC02BC
:10089000B091ED0226B5A89B05C02F3F19F0019637
:1008A000A11DB11D3FBFBA2FA92F982F8827BC01CA
:1008B000CD01620F711D811D911D42E0660F771FF2
:1008C000881F991F4A95D1F708958F929F92AF92F2
:1008D000BF92CF92DF92EF92FF920E9440044B01B1
:1008E0005C0184E6C82ED12CE12CF12C0E9440043E
:1008F000681979098A099B09683E73408105910549
:10090000A8F321E0C21AD108E108F10888EE880EA8
:1009100083E0981EA11CB11CC114D104E104F104B0
:1009200029F7FF90EF90DF90CF90BF90AF909F900E
:100930008F90089520919F02260F3327331F213275
:100940003105ECF42091C302FC0190E080E02430FA
:1009500069F082E00895A0919F022191AC01415875
:100960005D4FA40FB52FB11D2C930196861798F3F8
:1009700080919F02680F60939F0280E0089581E05C
:10098000089508958FEF9FEF08958FEF9FEF0895DB
:100990008091780290E09195819591090895CF9387
:1009A000DF93CB01EA01642F0E949A04CE01DF910C
:1009B000CF910895CF93DF931F92CDB7DEB76983B0
:1009C00061E0CE0101960E949A0481E090E00F90D0
:1009D000DF91CF910895089590E080E00895FC01A3
:1009E00001900020E9F73197AF01481B590BBC017A
:1009F00088E094E00C9407028F929F92AF92BF928E
:100A00000F931F93CF93DF93CDB7DEB7A1970FB6A8
:100A1000F894DEBF0FBECDBF19A2423008F44AE001
:100A20008E010F5D1F4F842E912CB12CA12CA5019E
:100A300094010E94220FE62FB901CA01EA30F4F4B2
:100A4000E05DD801EE938D01232B242B252B79F724
:100A500090E080E0109719F0CD010E94EF04A1967C
:100A60000FB6F894DEBF0FBECDBFDF91CF911F91BF
:100A70000F91BF90AF909F908F900895E95CE1CF68
:100A8000CF93DF93EC0160E08E810E94CE0361E0A2
:100A90008E810E94CE0360E08E810E94CE038BE89F
:100AA00091E00197F1F7DF91CF910895CF92DF9216
:100AB000EF92FF920F931F93CF93DF936C017C0112
:100AC00087E0E80EF11CD0E0C0E0062F10E0B8018E
:100AD0000C2E02C0759567950A94E2F76170F701D4
:100AE00081917F010E94CE032196C430D10579F710
:100AF000C601DF91CF911F910F91FF90EF90DF9092
:100B0000CF900C944005CF92DF92EF92FF920F931B
:100B10001F93CF93DF93EC01F62E642F8C810E94FC
:100B2000CE038D818F3F19F060E00E94CE030F2D20
:100B300010E08F8584FF25C06E0187E0C80ED11CB0
:100B4000F12CE12CB8010E2C02C0759567950A9422
:100B5000E2F76170F60181916F010E94CE03FFEF11
:100B6000EF1AFF0A88E0E816F10461F7CE01DF9181
:100B7000CF911F910F91FF90EF90DF90CF900C9449
:100B80004005B80184E0759567958A95E1F7CE0137
:100B90000E9456056F2DCE01DF91CF911F910F91CD
:100BA000FF90EF90DF90CF900C94560540E061E00D
:100BB00088E094E00E9483058BE39FE10197F1F7C1
:100BC0000895CF93DF93823029F4909117049860B1
:100BD0009093170480931B0410921C0480E480936C
:100BE0001D0480E180931E0480E580931F0461E072
:100BF00080910C040E94000480910D048F3F19F035
:100C000061E00E94000461E080910E040E940004F3
:100C1000C8E0D4E09E01285034408091170484FD40
:100C20000BC084E090E021962817390744F461E076
:100C30008E810E940004EECF88E090E0F4CF8BE339
:100C40009DE00197F1F760E080910C040E94CE03D3
:100C500060E080910E040E94CE0380910D048F3FCE
:100C600019F060E00E94CE036091170464FD3DC05E
:100C700063E088E094E00E945605CBE4D6E4CE0120
:100C80000197F1F763E088E094E00E945605219710
:100C9000F1F763E088E094E00E94560583E592E076
:100CA0000197F1F762E088E094E00E9456056091B8
:100CB0001704606240E088E094E00E94830584E0CD
:100CC0008093180440E06CE088E094E00E94830583
:100CD0000E94D60582E08093190440E066E088E037
:100CE00094E0DF91CF910C948305606240E088E04E
:100CF00094E00E9483058BE496E40197F1F76091FC
:100D00001704606240E088E094E00E94830583E578
:100D100092E00197F1F760911704606240E088E08B
:100D200094E00E948305C3CF41E00E94830581E0E7
:100D300090E008951F93CF93DF9385ED8093BC00DF
:100D400080917B0290917C02A0917D02B0917E0205
:100D50000796A11DB11D23E0B695A7959795879598
:100D60002A95D1F72091BC0024FD03C01092C30244
:100D700052C040917B0250917C0260917D02709143
:100D80007E02452B462B472B69F30097A105B10541
:100D900041F025E32A95F1F700000197A109B10977
:100DA000E1CF80917A02C1E0C0937902882399F162
:100DB000D091B8001091BA008091BC008A7B8093DA
:100DC000BC0060E084E10E94CE0360E085E10E9407
:100DD000CE031092C302C093C5021092C40261E018
:100DE00084E10E94CE0361E085E10E94CE03809100
:100DF000B9008E7F8093B9008091B9008D7F809378
:100E0000B90088E48093B80085E48093BC00109317
:100E1000BA00D093B800DF91CF911F9108951F922F
:100E20000F920FB60F9211240BB60F922F933F9390
:100E30004F935F936F937F938F939F93AF93BF93E2
:100E4000EF93FF938CEF92E00E947B02FF91EF9172
:100E5000BF91AF919F918F917F916F915F914F91D2
:100E60003F912F910F900BBE0F900FBE0F901F90D0
:100E700018951F920F920FB60F9211240BB60F9276
:100E80002F938F939F93EF93FF93E0910C03F09137
:100E90000D038081E0911203F091130382FD1DC0C8
:100EA0009081809115038F5F8F73209116038217B5
:100EB00041F0E0911503F0E0E450FD4F958F8093F1
:100EC0001503FF91EF919F918F912F910F900BBE82
:100ED0000F900FBE0F901F9018958081F2CF1F9238
:100EE0000F920FB60F9211242F933F938F939F93DE
:100EF000AF93BF938091F8029091F902A091FA020A
:100F0000B091FB023091E90223E0230F2D3758F511
:100F10000196A11DB11D2093E9028093F8029093E0
:100F2000F902A093FA02B093FB028091EA02909139
:100F3000EB02A091EC02B091ED020196A11DB11D52
:100F40008093EA029093EB02A093EC02B093ED023F
:100F5000BF91AF919F918F913F912F910F900FBEB5
:100F60000F901F90189526E8230F0296A11DB11D22
:100F7000D2CF1F920F920FB60F9211240BB60F9281
:100F80002F933F934F935F936F937F938F939F9391
:100F9000AF93BF93EF93FF938091B900887F803622
:100FA00009F44DC008F040C0883209F4A7C028F504
:100FB000803109F49BC0C8F4882309F4F7C0883055
:100FC00009F494C0FF91EF91BF91AF919F918F91E0
:100FD0007F916F915F914F913F912F910F900BBE39
:100FE0000F900FBE0F901F901895883109F486C09E
:100FF000803241F78093C20214C0803409F49BC050
:1010000040F48033B9F38833E9F68093C20285EC6B
:10101000AEC0803509F483C0883509F494C08834A3
:1010200089F60E949A06CECF883909F48AC038F52D
:10103000883729F050F4883611F0803719F683E0AC
:101040008093C3021092C10255C0883809F479C058
:10105000803919F0803809F0B5CF8091C102803213
:1010600008F06FC0E091C10281E08E0F8093C10251
:101070008091BB00F0E0EF55FD4F80833BC0803B8B
:1010800039F0D0F4803A09F477C0883A09F09ACF61
:1010900084E08093C3021092A00210929F02F0E0BD
:1010A000E0E0199580919F0281110FC081E080934B
:1010B0009F0210927F0209C0803C09F4A8CF883CAF
:1010C00009F4A5CF883B09F07DCFE091A00281E033
:1010D0008E0F8093A002F0E0E158FD4F8081809355
:1010E000BB009091A00280919F0229C08091E802EC
:1010F0008093BB0085EC8093BC0064CF9091E702A5
:101100008091E602981758F5E091E70281E08E0F92
:101110008093E702F0E0EA53FD4F8081E9CFE09150
:10112000E70281E08E0F8093E7028091BB00F0E040
:10113000EA53FD4F80839091E7028091E602981771
:10114000C8F285E8D8CFE091E70281E08E0F809366
:10115000E7028091BB00F0E0EA53FD4F808380916D
:10116000C50281115ECF81E08093C40284EA80933E
:10117000BC001092C30226CF85EC8093BC00109275
:10118000C3028091C102803230F4E091C102F0E0EC
:10119000EF55FD4F10826091C10270E081EA92E04C
:1011A000F0E0E0E019951092C1020CCF1092C2025B
:1011B00038CF1092FF021092FE0288EE93E0A0E07A
:1011C000B0E08093000390930103A0930203B093D7
:1011D00003038CE192E09093FD028093FC0285EC86
:1011E00090E0909309038093080384EC90E090933F
:1011F0000B0380930A0380EC90E090930D0380939F
:101200000C0381EC90E090930F0380930E0382EC2B
:1012100090E0909311038093100386EC90E09093FC
:101220001303809312031092150310921603109269
:1012300017031092180310920B0410920A0488E30B
:1012400092E090930904809308048DE080930C044D
:101250008FEF80930D048CE080930E048BE08093DD
:101260000F048AE08093100489E08093110488E0E1
:101270008093120410921304109214041092150417
:10128000109216041092170481E00E94E10510925A
:101290009B0310929F0310929E031092A0038EE274
:1012A00092E090939A0380939903E5EBF3E0108228
:1012B000148213821582369683E0E13FF807B9F76E
:1012C00088E092E09093FC038093FB0385E092E03A
:1012D0009093FE038093FD0384E08093FF0383E0FB
:1012E000809300048CE092E09093FA038093F903DA
:1012F0008AE090E0909302048093010484EF91E0EF
:10130000909304048093030410920704109206043F
:101310001092F5031092F6031092F7031092F8035F
:10132000109205040895789484B5826084BD84B5D4
:10133000816084BD85B5826085BD85B5816085BDD0
:1013400080916E00816080936E0010928100809188
:101350008100826080938100809181008160809310
:101360008100809180008160809380008091B10035
:1013700084608093B1008091B00081608093B00060
:1013800080919100826080939100809191008160B2
:101390008093910080919000816080939000809173
:1013A000A10082608093A1008091A1008160809360
:1013B000A1008091A00081608093A0008091210114
:1013C00082608093210180912101816080932101BD
:1013D0008091200181608093200180917A00846057
:1013E00080937A0080917A00826080937A00809165
:1013F0007A00816080937A0080917A00806880937F
:101400007A001092C100E0910C03F0910D0382E08C
:101410008083E0910803F09109031082E0910A03B0
:10142000F0910B038FEC808310921403E091100372
:10143000F091110386E08083E0910E03F0910F0399
:10144000808180618083E0910E03F0910F038081A1
:1014500088608083E0910E03F0910F0380818068A3
:101460008083E0910E03F0910F0380818F7D808354
:1014700082E00E94E10561E087E30E94000460E0F1
:1014800088E30E94000461E08FE00E94000460E0B5
:101490008EE00E94000461E08EE10E94000461E0A1
:1014A0008FE10E940004412C512C3201439446E00C
:1014B000242E50E4352E81E0809305048FB7F894F4
:1014C0004091F8025091F9026091FA027091FB028A
:1014D0008FBF8091F5039091F603A091F703B0912F
:1014E000F803481B590B6A0B7B0B80910104909108
:1014F0000204B0E0A0E084179507A607B70708F03C
:10150000ABC1C0E08091FF03C81760F4E091FB031A
:10151000F091FC03EC0FF11D62E080810E94000459
:10152000CF5FF0CF912C80910004981608F05FC037
:10153000092D10E0E091FD03F091FE03E00FF11F93
:1015400061E080810E940004E091FD03F091FE03C0
:10155000E00FF11F60E080810E94CE03D301C20141
:10156000092C04C0880F991FAA1FBB1F0A94D2F729
:101570005C017C01E094F094812C8091FF0388163B
:10158000F8F4C82DD0E0E091FB03F091FC03EC0FE0
:10159000FD1F80810E94A2032496CC0FDD1FC75639
:1015A000DC4F892B41F4888199818A299B29998371
:1015B00088838394E2CF888199818E219F21F7CF00
:1015C000E091FD03F091FE03E00FF11F61E08081E7
:1015D0000E94CE038091FD039091FE03080F191F16
:1015E00060E0F80180810E94000493949CCFC9E9D7
:1015F000D3E0FE01878D90A1892B31F4148E8FEFFB
:101600009FEF968F858F11A2369693E0E53DF907FF
:1016100089F710E08091FF03181708F052C000E02E
:10162000E12EF12CEE0CFF1CF701EF55FC4F7F0172
:1016300020910004021708F042C0F7016081718117
:10164000002E02C0769567950A94E2F7129F9001EA
:101650001124200F311DE9E9F3E080E0458D568D1E
:101660002417350709F4B0C18F5F36968A30B1F779
:1016700060FF23C0E9E9F3E090E080E0448D411190
:1016800017C0E091F903F091FA03E20FF31F6081B4
:10169000289EF001299EF00D1124E756FC4F648F1F
:1016A000368F258F10A2178E61E00E94970105C02A
:1016B000019636968A30910509F70F5FB9CF1F5F03
:1016C000A9CF80E099A19111892F2696F3E0C53D1D
:1016D000DF07C1F79FB7F8944091F8025091F902E3
:1016E0006091FA027091FB029FBF4093F503509303
:1016F000F6036093F7037093F803882309F4ACC0F2
:101700008091F7029091BA03992309F4A5C0209122
:10171000B8033091B9032130310509F09DC0909193
:10172000B50391119CC08091F7028430A9F460E068
:1017300072E082EF92E00E944C0F61E0892B09F089
:1017400097C08FE10E94CE030E94650460E08FE1A4
:101750000E94CE031092F70280917B00877F8093D6
:101760007B0030927C0080917A00806480937A00C4
:1017700080917A0086FDFCCF80917800609179009D
:10178000762F682F072E000C880B990B0E94FB0DFB
:1017900020E030E44CE950E40E94B00E20E030E05C
:1017A00040E251E40E94580D6093EE027093EF0204
:1017B0008093F0029093F10280E492E00E94EF04A3
:1017C0008090EE029090EF02A090F002B090F102B3
:1017D000A5019401C501B4010E941D0F882309F4DD
:1017E0004FC087E492E00E94EF0483E592E00E94FC
:1017F000EF048090EE029090EF02A090F002B09083
:10180000F10220E030E040EA51E4C501B4010E9459
:10181000530D87FFC9C00E94D60586E592E00E945D
:10182000EF0488E30E94A20361E0019709F060E001
:1018300087E30E94CE038EE00E94A20361E001973D
:1018400009F060E08FE00E94CE030E9465040E94D0
:10185000D6050E940A032FCE1092050464CFE82F0C
:10186000F0E0EE50FD4F90838F5F8093F7025BCFE7
:101870008EE10E94CE030E94650460E08EE168CF95
:1018800075016401E894F7F82FEF3FEF4FE75FE74A
:10189000C701B6010E941D0F81110DC02FEF3FEF50
:1018A0004FE75FE7C701B6010E94530D18161CF4FD
:1018B0008BE492E098CF2FEF3FEF4FE75FE4C50155
:1018C000B4010E94AB0E18161CF48FE492E08BCF8B
:1018D0002FEF3FEF4FE75FECC501B4010E94530DBE
:1018E00087FDF3CF20E030E0A901C501B4010E94DB
:1018F000530D87FF0AC041E06DE288E094E00E944A
:101900008305B7FAB094B7F8B0942AE037ED43EA0C
:101910005BE3C501B4010E94E70C6B017C010E94EE
:10192000CA0D4B015C010E94F90D9B01AC01C7017E
:10193000B6010E94E60C6B017C014AE0C501B401CE
:101940000E94FC0441E06EE288E094E00E9483057E
:1019500020E030E040E251E4C701B6010E94B00E41
:101960006B017C010E94CA0D4B01B12CA12C4AE0F5
:10197000C501B4010E94FC04C501B4010E94F90D27
:101980009B01AC01C701B6010E94E60C20E030E0EB
:1019900040E251E40E94B00E0E94CA0D90E080E047
:1019A0004AE00E94FC0421CF20E030E040EF51E407
:1019B000C501B4010E94AB0E18160CF032CF0E9484
:1019C000D60585E692E02BCF61706FCE5058BB27CD
:1019D000AA270E94FE0C0C94710E0E94630E38F030
:1019E0000E946A0E20F039F49F3F19F426F40C94FB
:1019F000600E0EF4E095E7FB0C945A0EE92F0E945E
:101A0000820E58F3BA17620773078407950720F010
:101A100079F4A6F50C94A40E0EF4E0950B2EBA2FD3
:101A2000A02D0B01B90190010C01CA01A0011124E4
:101A3000FF27591B99F0593F50F4503E68F11A1690
:101A4000F040A22F232F342F4427585FF3CF469521
:101A500037952795A795F0405395C9F77EF41F1643
:101A6000BA0B620B730B840BBAF09150A1F0FF0F0D
:101A7000BB1F661F771F881FC2F70EC0BA0F621FF9
:101A8000731F841F48F4879577956795B795F795E9
:101A90009E3F08F0B0CF9395880F08F09927EE0F7E
:101AA0009795879508950E94360E08F481E0089571
:101AB0000E946C0D0C94710E0E946A0E58F00E94E8
:101AC000630E40F029F45F3F29F00C945A0E511137
:101AD0000C94A50E0C94600E0E94820E68F399235C
:101AE000B1F3552391F3951B550BBB27AA2762171A
:101AF0007307840738F09F5F5F4F220F331F441F27
:101B0000AA1FA9F335D00E2E3AF0E0E832D091505A
:101B10005040E695001CCAF72BD0FE2F29D0660F47
:101B2000771F881FBB1F261737074807AB07B0E88A
:101B300009F0BB0B802DBF01FF2793585F4F3AF090
:101B40009E3F510578F00C945A0E0C94A50E5F3F01
:101B5000E4F3983ED4F3869577956795B795F79516
:101B60009F5FC9F7880F911D9695879597F90895FE
:101B7000E1E0660F771F881FBB1F6217730784079A
:101B8000BA0720F0621B730B840BBA0BEE1F88F7A9
:101B9000E09508950E948A0E88F09F5798F0B92F1B
:101BA0009927B751B0F0E1F0660F771F881F991F92
:101BB0001AF0BA95C9F714C0B13091F00E94A40E82
:101BC000B1E008950C94A40E672F782F8827B85F92
:101BD00039F0B93FCCF3869577956795B395D9F7EA
:101BE0003EF490958095709561957F4F8F4F9F4FF4
:101BF0000895E89409C097FB3EF490958095709500
:101C000061957F4F8F4F9F4F9923A9F0F92F96E948
:101C1000BB279395F695879577956795B795F111BD
:101C2000F8CFFAF4BB0F11F460FF1BC06F5F7F4F5A
:101C30008F4F9F4F16C0882311F096E911C077236C
:101C400021F09EE8872F762F05C0662371F096E875
:101C5000862F70E060E02AF09A95660F771F881F44
:101C6000DAF7880F9695879597F90895990F0008E8
:101C7000550FAA0BE0E8FEEF16161706E807F9075E
:101C8000C0F012161306E407F50798F0621B730BF9
:101C9000840B950B39F40A2661F0232B242B252B7A
:101CA00021F408950A2609F4A140A6958FEF811D1D
:101CB000811D089597F99F6780E870E060E00895BE
:101CC0009FEF80EC089500240A9416161706180654
:101CD0000906089500240A94121613061406050630
:101CE0000895092E0394000C11F4882352F0BB0FC1
:101CF00040F4BF2B11F460FF04C06F5F7F4F8F4F24
:101D00009F4F089557FD9058440F551F59F05F3F5E
:101D100071F04795880F97FB991F61F09F3F79F00D
:101D200087950895121613061406551FF2CF46958F
:101D3000F1DF08C0161617061806991FF1CF869511
:101D40007105610508940895E894BB2766277727F5
:101D5000CB0197F908950E94360E08F48FEF08958D
:101D60000E94C30E0C94710E0E94630E38F00E9404
:101D70006A0E20F0952311F00C945A0E0C94600E0C
:101D800011240C94A50E0E94820E70F3959FC1F34E
:101D9000950F50E0551F629FF001729FBB27F00D19
:101DA000B11D639FAA27F00DB11DAA1F649F66276E
:101DB000B00DA11D661F829F2227B00DA11D621FBD
:101DC000739FB00DA11D621F839FA00D611D221F77
:101DD000749F3327A00D611D231F849F600D211D5B
:101DE000822F762F6A2F11249F5750409AF0F1F0DE
:101DF00088234AF0EE0FFF1FBB1F661F771F881F47
:101E000091505040A9F79E3F510580F00C945A0E16
:101E10000C94A50E5F3FE4F3983ED4F38695779536
:101E20006795B795F795E7959F5FC1F7FE2B880FEC
:101E3000911D9695879597F908950E94360E880B07
:101E4000990B0895A1E21A2EAA1BBB1BFD010DC020
:101E5000AA1FBB1FEE1FFF1FA217B307E407F5075A
:101E600020F0A21BB30BE40BF50B661F771F881F36
:101E7000991F1A9469F760957095809590959B01CC
:101E8000AC01BD01CF010895EE0FFF1F881F8BBF6E
:101E90000790F691E02D1994FB01DC018D910190E2
:0E1EA00080190110D9F3990B0895F894FFCF23
:101EAE003139303700161718191A1B1C31323334DA
:101EBE0035363738392A3023000000009D020702DC
:101ECE003402EA02650243025702000000003C049D
:101EDE00FC03CB030000000094060702EC04EB04A5
:101EEE0054454D503A20006E616E00696E66006F6B
:101EFE00766600204300536963616B6C696B204406
:101F0E007573747500536963616B6C696B205975D9
:081F1E006B73656C646900003F
:00000001FF
